:020000040800F2
:10000000C807002049010008212300082323000815
:10001000272300082B2300082F23000800000000DE
:100020000000000000000000000000003323000872
:10003000352300080000000037230008392300089A
:100040006301000863010008630100086301000800
:1000500063010008630100086301000863010008F0
:1000600063010008630100086301000863010008E0
:1000700063010008630100086301000863010008D0
:1000800063010008630100086301000863010008C0
:1000900063010008630100086301000863010008B0
:1000A00063010008630100086301000863010008A0
:1000B0006301000863010008630100086301000890
:1000C0006301000863010008630100086301000880
:1000D000630100083921000863010008630100087A
:1000E0006301000863010008630100086301000860
:1000F0006301000863010008630100086301000850
:10010000630100086301000863010008630100083F
:10011000630100086301000863010008630100082F
:10012000630100086301000863010008630100081F
:10013000DFF810D003F07CF9004800472D210008BB
:10014000AFF30080C80700200648804706480047F4
:10015000FEE7FEE7FEE7FEE7FEE7FEE7FEE7FEE777
:10016000FEE7FEE74B020008310100080CB5002055
:10017000019000906C48006840F480306A49086043
:1001800000BF6948006800F4003000900198401CEE
:100190000190009818B90198B0F5A06FF1D16248AC
:1001A000006800F4003010B10120009001E0002050
:1001B00000900098012843D15C48006840F010008E
:1001C0005A4908600846006820F0030008600846A5
:1001D000006840F002000860534840685249486097
:1001E0000846406848600846406840F480604860BF
:1001F0000846406820F47C1048600846406840F497
:10020000E81048600846006840F08070086000BF51
:100210004548006800F000700028F9D04248406866
:1002200020F00300404948600846406840F0020062
:10023000486000BF3C48406800F00C000828F9D135
:100240000CBD10B5FFF792FF10BD10B53648006821
:1002500040F00100344908600846406834490840CD
:100260003149486008460068324908402E49086014
:100270000846006820F4802008600846406820F4A2
:10028000FE0048604FF41F008860FFF7DAFF4FF070
:1002900000602949086010BD10B50021002000222F
:1002A000214B5B6803F00C0121B1042906D0082919
:1002B00028D107E0214B224C236027E01F4B204C24
:1002C000236023E0184B5B6803F47010164B5B68E7
:1002D00003F48032022303EB904022B9194B4343CD
:1002E000174C23600DE0104B5B6803F4003323B11F
:1002F000144B4343124C236003E0104B4343104C18
:10030000236003E00D4B0E4C236000BF00BF064B83
:100310005B68C3F303130C4CE15C094B1B68CB40D7
:10032000074C236010BD0000001002400020024076
:100330000000FFF8FFFFF6FE08ED00E000127A0073
:100340000000002000093D00040000203149014365
:10035000314A1160704770B5002100230F22C47824
:1003600004B32D4C246804F4E064C4F5E064210A6D
:10037000C1F10403CA40447804FA03F184781440BC
:1003800021430901254C0678A155047804F01F0586
:100390000124AC4005786D11AD0005F1E025C5F8EC
:1003A000004109E0047804F01F050124AC401C4D15
:1003B0000678761145F8264070BD1A4A0A40024375
:1003C000154B1B1F1A60704739B1134A121D126872
:1003D0000243114B1B1D1A6006E00F4A121D1268E2
:1003E00082430D4B1B1D1A607047042808D14FF043
:1003F000E021096941F004014FF0E022116107E0BA
:100400004FF0E021096921F004014FF0E022116171
:10041000704700000000FA050CED00E000E400E089
:1004200080E100E080FFFF1F10B50121480700F0C8
:100430002EFD00214FF0005000F029FD10BD30B519
:10044000002200235A4C226840F6FE748440A243E6
:10045000D1E900452C438D682C43CD6844EA05035F
:1004600003FA00F42243524C226030BD00210160A7
:1004700041608160C160704739B14D4A1268012303
:1004800083401A434A4B1A6006E0494A1268012326
:1004900083409A43464B1A60704741B1444A126800
:1004A0004FF4805383401A43414B1A6007E0404A9F
:1004B00012684FF4805383409A433D4B1A60704753
:1004C00010B551B13A4A121D126804090123A34024
:1004D0001A43374B1B1D1A6009E0354A121D12687A
:1004E00004090123A3409A43314B1B1D1A6010BD20
:1004F00040B12F49091D096841F003012C4A121D22
:10050000116007E02A49091D096821F00301284A02
:10051000121D1160704710B53AB1254B1B6801FAE6
:1005200000F42343224C236006E0214B1B6801FAB0
:1005300000F4A3431E4C236010BD08B500220092B6
:100540001B4A009200F10802009B1A440092009A94
:10055000116008BD08B500220092154A009200F112
:100560001402009B1A440092009A116008BD30B535
:1005700000240023082802D142EA012401E042EAD3
:1005800001440B4B00F120052B441C6030BD08B525
:10059000014600200090064800902C2000EB9100BE
:1005A000009A104400900098006880B208BD0000D6
:1005B0000074004001684FF6FE7211400160002196
:1005C000016041608160C1608D49884208D18C49D9
:1005D0000839496841F00F01894A083A51608AE0B8
:1005E00087491431884208D185490839496841F062
:1005F000F001834A083A51607DE081492831884200
:1006000008D17F490839496841F470617C4A083A49
:10061000516070E07A493C31884208D17849083904
:10062000496841F47041764A083A516063E0744980
:100630005031884208D172490839496841F4702123
:100640006F4A083A516056E06D496431884208D1DA
:100650006B490839496841F47001694A083A5160A8
:1006600049E067497831884208D1654908394968C5
:1006700041F07061624A083A51603CE06149884249
:1006800006D1011F096841F00F01021F116032E01D
:100690005C491431884208D15A49091F096841F060
:1006A000F001584A121F116025E05649283188424E
:1006B00008D15449091F096841F47061514A121F59
:1006C000116018E04F493C31884208D14D49091F5B
:1006D000096841F470414B4A121F11600BE049490F
:1006E0005031884207D14749091F096841F47021F8
:1006F000444A121F1160704710B50022026847F685
:10070000F0739A430C6A8B6823430C6923434C694A
:1007100023438C692343CC6923434C6A23438C6A6B
:1007200023431A430260CB6843600B6883604B68C5
:10073000C36010BD0021016041608160C160016142
:1007400041618161C161016241628162704721B191
:10075000026842F00102026004E002684FF6FE7394
:100760001A40026070471AB103680B43036002E04D
:1007700003688B43036070474160704701464868D7
:1007800080B2704701460020002201F080531BB167
:100790001C4B083B1A6802E0194B083B1A6802EA36
:1007A00001030BB1012000E00020704700F08051F0
:1007B00019B11449091F086002E01149083948605D
:1007C000704701460020002201F080531BB10D4B01
:1007D000083B1A6802E00A4B083B1A6802EA010368
:1007E0000BB1012000E00020704700F0805119B1EA
:1007F0000449091F086002E0014908394860704750
:10080000080002400804024010B50446CC48844267
:1008100008D10121042000F02DFB0021042000F06C
:1008200029FB46E0C748844208D10121082000F096
:1008300021FB0021082000F01DFB3AE0C248844261
:1008400008D10121102000F015FB0021102000F03C
:1008500011FB2EE0BD48844208D10121202000F088
:1008600009FB0021202000F005FB22E0B84884426B
:1008700008D10121402000F0FDFA0021402000F0C5
:10088000F9FA16E0B348844208D10121802000F033
:10089000F1FA0021802000F0EDFA0AE0AE4884422F
:1008A00007D10121801500F0E5FA0021A01500F024
:1008B000E1FA10BD10B50121084600F0DBFA002175
:1008C000012000F0D7FA10BD2DE9F04102460025C5
:1008D0000026002000230024002791F803C00CF01C
:1008E0000F0591F803C00CF0100CBCF1000F03D001
:1008F00091F802C04CEA050591F800C0BCF1000F68
:1009000031D0146800202BE04FF0010C0CFA00F3FA
:10091000B1F800C00CEA03069E4220D183004FF0DC
:100920000F0C0CFA03F7BC4305FA03FC4CEA040471
:1009300091F803C0BCF1280F06D14FF0010C0CFA5E
:1009400000FCC2F814C00AE091F803C0BCF1480FE3
:1009500005D14FF0010C0CFA00FCC2F810C0401C8D
:100960000828D1D31460B1F800C0BCF1FF0F34DD0A
:10097000546800202EE000F1080C4FF0010808FA3E
:100980000CF3B1F800C00CEA03069E4221D18300AB
:100990004FF00F0C0CFA03F7BC4305FA03FC4CEACA
:1009A000040491F803C0BCF1280F05D100F1080C34
:1009B00008FA0CF8C2F8148091F803C0BCF1480F93
:1009C00007D100F1080C4FF0010808FA0CF8C2F842
:1009D0001080401C0828CED35460BDE8F0814FF64B
:1009E000FF710180022181700421C17070470246AD
:1009F000002093680B400BB1012000E000207047FD
:100A00000146886880B2704702460020D3680B40D8
:100A10000BB1012000E0002070470146C86880B299
:100A2000704701617047416170470AB1016100E0A0
:100A300041617047C16070474FF480320A43826160
:100A40008161826182698269704702460020434B5E
:100A500018684FF68073184040EA021008433F4B75
:100A6000186070473E49C8617047F0B50A460023D8
:100A700000240021002500F00046B6F1004F02D10D
:100A8000364EF16901E0354E7168C0F3034583B21B
:100A900000F44016B6F5401F08D121F070612F4ECA
:100AA000766826F070662D4F7E6012E000F48016A6
:100AB000B6F5801F06D1032606FA05F4A14341F0DE
:100AC000706106E0460D360103FA06F6B14341F0C7
:100AD000706122B1460D360103FA06F6314300F08B
:100AE0000046B6F1004F02D11C4EF16101E01B4EF1
:100AF0007160F0BD30B500228B071C0F0F2303FA85
:100B000004F2164B08338C1053F824309343134CE3
:100B100008348D1044F8253023468C1053F82430C7
:100B20008C07240F00FA04F423430C4C08348D1076
:100B300044F8253030BD0A49DC31086070470000B8
:100B400000080140000C0140001001400014014069
:100B500000180140001C014000200140000001403D
:100B600000002042DF48006840F00100DD490860D5
:100B700008464068DC490840DA4948600846006891
:100B8000DA490840D74908600846006820F4802008
:100B900008600846406820F4FE0048604FF41F00DB
:100BA00088607047CF49096821F48031CD4A1160CF
:100BB0001146096821F480211160B0F5803F03D00F
:100BC000B0F5802F0ED106E0C649096841F48031A6
:100BD000C44A116007E0C349096841F4A021C14A31
:100BE000116000E000BF00BF704710B50146002251
:100BF000002300204A11012A02D1BA4C236806E0E2
:100C0000022A02D1B74C236A01E0B64C636A01F0B4
:100C10001F02012494401C400CB1012000E0002080
:100C200010BD38B5002000900024002500BF312001
:100C3000FFF7DBFF05460098401C00900098B0F5D8
:100C4000A06F01D0002DF2D03120FFF7CEFF08B108
:100C5000012400E00024204638BD01460020A14ABE
:100C6000106820F0F80040EAC10010607047A04909
:100C700008607047024600209A4B586820F47C10A8
:100C800042EA01031843974B586070479849086639
:100C9000704701460020934A506820F00300084343
:100CA000506070478F48406800F00C007047014664
:100CB00000208C4A506820F0F000084350607047D4
:100CC00001460020874A506820F4E06008435060E5
:100CD000704701460020834A506820F4605040EA83
:100CE000C1005060704729B17E4A527A02437D4B61
:100CF0005A7204E07B4A527A82437A4B5A727047A6
:100D00007B49D8310860704701460020754A506819
:100D100020F440400843506070470021714A20325F
:100D20001170704A82F82010012802D004280AD1DC
:100D300004E001216B4A2032117005E00521694A67
:100D40002032117000E000BF00BF704769490860A1
:100D500070476449096A0143624A116270476549F4
:100D600044390860704730B5002100220024002378
:100D70005C4D6D6805F00C0121B1042905D00829EE
:100D800023D105E05C4D056022E05B4D05601FE06E
:100D9000544D6D6805F47012524D6D6805F4803441
:100DA000022505EB92421CB9544D554305600BE0FA
:100DB0004C4D6D6805F400351DB1504D554305602F
:100DC00002E04D4D5543056002E04B4D056000BF0C
:100DD00000BF444D6D6805F0F0010909484D6B5C9A
:100DE0000568DD4045603F4D6D6805F4E061090A26
:100DF000434D6B5C4568DD4085603A4D6D6805F498
:100E00006051C90A3E4D6B5C4568DD40C560354D9B
:100E10006D6805F44041890B3A4D6B5CC568B5FBC4
:100E2000F3F5056130BD29B12E4A526902432D4BBD
:100E30005A6104E02B4A526982432A4B5A61704737
:100E400029B1284A92690243264B9A6104E0254A57
:100E500092698243234B9A61704729B1214AD26932
:100E60000243204BDA6104E01E4AD26982431D4BE3
:100E7000DA61704729B11B4AD2680243194BDA6024
:100E800004E0184AD2688243164BDA60704729B1F1
:100E9000144A12690243134B1A6104E0114A1269A1
:100EA0008243104B1A6170471249403908607047FD
:100EB0000F49C86470470B49C87170470948406AB8
:100EC00040F0807007494862704701460020054A9B
:100ED00092680A400AB1012000E0002070470149F1
:100EE00088727047001002400000FFF8FFFFF6FE16
:100EF000000042428004424200127A0000093D0094
:100F0000140000202400002010B50446FE4884424E
:100F100008D10121C014FFF7ADFF0021E014FFF755
:100F2000A9FFC4E0B4F1804F08D101210846FFF7C2
:100F3000AEFF00210120FFF7AAFFB8E0F34884428A
:100F400008D101210220FFF7A2FF00210220FFF7B4
:100F50009EFFACE0EE48844208D101210420FFF757
:100F600096FF00210420FFF792FFA0E0E9488442A9
:100F700008D101210820FFF78AFF00210820FFF790
:100F800086FF94E0E448844208D101211020FFF755
:100F90007EFF00211020FFF77AFF88E0DF488442BF
:100FA00008D101212020FFF772FF00212020FFF748
:100FB0006EFF7CE0DA48844208D101214014FFF73B
:100FC00059FF00216014FFF755FF70E0D5488442B7
:100FD00009D10121C804FFF74DFF00214FF4002083
:100FE000FFF748FF63E0D048844209D1012108059A
:100FF000FFF740FF00214FF48010FFF73BFF56E062
:10100000CA48844209D101214805FFF733FF002176
:101010004FF40010FFF72EFF49E0C548844208D185
:1010200001214020FFF733FF00214020FFF72FFF71
:101030003DE0C048844208D101218020FFF727FF0E
:1010400000218020FFF723FF31E0BB48844208D114
:1010500001218015FFF71BFF0021A015FFF717FFE7
:1010600025E0B648844209D101210804FFF702FFB8
:1010700000214FF48030FFF7FDFE18E0B0488442B5
:1010800009D101214804FFF7F5FE00214FF400309B
:10109000FFF7F0FE0BE0AB48844208D10121880441
:1010A000FFF7E8FE00214FF48020FFF7E3FE10BDBC
:1010B00000220288944B98420ED0994B98420BD054
:1010C000B0F1804F08D0914B984205D0904B984298
:1010D00002D0904B984204D14FF68F731A404B8840
:1010E0001A438D4B984207D08C4B984204D04FF650
:1010F000FF431A40CB881A4302808B8883850B8874
:101100000385814B98420BD0854B984208D08B4B7E
:10111000984205D08A4B984202D08A4B984201D11E
:101120000B7A038601238382704770B50024002266
:101130000023058C4FF6FE7635400584028C8388AB
:10114000048B4FF68F752C40B51E2C400D882C4318
:10115000751E2A400D892A434D882A436A4DA842AC
:101160000BD06F4DA84208D0744DA84205D0744DE5
:10117000A84202D0734DA84213D14FF6F7752A400A
:101180004D892A434FF6FB752A408D882A434FF636
:10119000FF652B404FF6FF552B408D892B43CD89A2
:1011A0002B4383800483CD888586028470BD70B50F
:1011B000002400220023058C4FF6EF76354005848D
:1011C000028C8388048B48F6FF752C404FF6FF4550
:1011D0002C400D884FF6FF7606EA05252C434FF686
:1011E000DF752A400D8906EA05152A434D8806EA6F
:1011F00005152A43444DA84202D0494DA8421DD1AD
:101200004FF67F752A404D894FF6FF7606EA0515A1
:101210002A434FF6BF752A408D8806EA05152A43F2
:101220004FF6FF352B404FF2FF752B408D8906EAB4
:1012300085052B43CD8906EA85052B4383800483EE
:10124000CD880587028470BD70B50024002200237C
:10125000058C4FF6FF6635400584028C8388848BAD
:101260004FF68F752C404FF6FC752C400D882C43A3
:101270004FF6FF552A400D894FF6FF7606EA052501
:101280002A434D8806EA05252A431F4DA84202D06D
:10129000234DA8421DD14FF2FF752A404D894FF6CC
:1012A000FF7606EA05252A434FF6FF352A408D884A
:1012B00006EA05252A434EF6FF752B404DF6FF75CD
:1012C0002B408D8906EA05152B43CD8906EA0515C5
:1012D0002B4383808483CD888587028470BD70B55D
:1012E000002200230024058C4EF6FF76354005844D
:1012F000038C8488828B48F6FF752A404FF6FF45A1
:101300002A400D8820E00000002C0140000400402D
:1013100000080040000C0040001000400014004095
:1013200000340140004C0140005001400054014095
:1013300000180040001C0040002000400040014018
:1013400000440140004801404FF6FF7606EA0525BB
:101350002A434DF6FF752B400D8906EA05352B43D0
:101360004D8806EA05352B43FA4DA84202D0FA4DC6
:10137000A84208D14BF6FF752C408D894FF6FF76B9
:1013800006EA85152C4384808283CD88A0F84050DE
:10139000038470BD828B4FF2FF331A408283828BAD
:1013A0004FF6FF7303EA01231A4382837047F0B5B7
:1013B0000C461546002200210026078C4EF6FF7CC5
:1013C00007EA0C070784828B018C4FF6FF7707EA48
:1013D000043640F6FF473A404FF6FF7707EA052705
:1013E0003A434FF6FF7707EA03373A43D94FB842FB
:1013F0000ED0D94FB8420BD0B0F1804F08D0D74FA4
:10140000B84205D0D64FB84202D0D64FB84206D126
:101410004DF6FF77394046F48057394305E047F6EB
:10142000FF57394044F48057394382830184F0BD2B
:10143000828B4FF6F3731A408283828B0A43828336
:101440007047F0B50C461546002200210026078C97
:101450004FF6FF6C07EA0C070784828B018C4FF66E
:10146000FF7707EA04264FF60C773A404FF6FF77EE
:1014700007EA03172F433A43B64FB8420ED0B64F90
:10148000B8420BD0B0F1804F08D0B44FB84205D06D
:10149000B34FB84202D0B34FB84206D14FF6FF5710
:1014A000394046F48077394305E04FF2FF57394021
:1014B00044F48077394382830184F0BD028B4FF27C
:1014C000FF331A400283028B4FF6FF7303EA0123B6
:1014D0001A4302837047F0B50C46154600220021DE
:1014E0000026078C4FF6EF7C07EA0C070784028B77
:1014F000018C4FF6FF7707EA041640F6FF473A40A3
:101500004FF6FF7707EA03373A434FF6FF7707EACC
:1015100005273A438F4FB8420ED08F4FB8420BD0B9
:10152000B0F1804F08D08D4FB84205D08C4FB842F3
:1015300002D08C4FB84206D14FF6DF77394046F0E3
:101540001007394305E04FF65F77394044F0100744
:10155000394302830184F0BD028B4FF6F3731A40C6
:101560000283028B0A4302837047F0B50C4615468E
:1015700000220021068C4FF6FE773E400684028B47
:10158000018C4FF60C7632407E1C06EA03162E4381
:101590003243704EB0420ED06F4EB0420BD0B0F11D
:1015A000804F08D06D4EB04205D06D4EB04202D093
:1015B0006C4EB04206D14FF6FD76314044F0010644
:1015C000314305E04FF6F576314044F001063143F2
:1015D00002830184F0BD70B505460C465D48854226
:1015E0000ED05D4885420BD0B5F1804F08D05B48E6
:1015F000854205D05A48854202D05A48854200D1DA
:1016000000E000BF208850B92389A288618828465D
:10161000FFF7ABFFE1882846FFF79EFF25E0208813
:1016200004280AD12389A28861882846FFF753FF3E
:10163000E1882846FFF742FF17E0208808280AD1F2
:101640002389A28861882846FFF7FBFEE1882846A7
:10165000FFF7EEFE09E02389A28861882846FFF79C
:10166000A6FEE1882846FFF795FE70BD2DE9F04102
:1016700005460C4600260127608808B9022600E0CE
:101680000026A088012801D1022700E00127208838
:10169000A0B92389A28861882846FFF766FFE18800
:1016A0002846FFF759FF23893A4631462846FFF777
:1016B00012FFE1882846FFF701FF13E02389A28883
:1016C00061882846FFF707FFE1882846FFF7F6FE06
:1016D00023893A4631462846FFF747FFE1882846E6
:1016E000FFF73AFFBDE8F0810A884B881A438B88E0
:1016F0001A43CB881A430B891A434B891A438B89A7
:101700001A43A0F8442070474FF6FF7181800021F2
:101710000180C180418001727047002101804180B9
:101720008180C180018141818181C1817047002117
:1017300001804180012181800021C18001817047A9
:101740000021018041808180C180018141818181AE
:1017500070470000002C01400034014000040040AC
:1017600000080040000C004021B1028842F0010254
:10177000028004E002884FF6FE731A400280704730
:1017800031B1B0F8442042F40042A0F8442005E012
:10179000B0F84420C2F30E02A0F8442070471AB1FA
:1017A00083890B43838102E083898B438381704764
:1017B0008182704741EA0203A0F8483070471AB1AD
:1017C00083890B43838102E083898B438381704744
:1017D00001894FF6F8721140018170470A460021D5
:1017E00001894FF68F73194011430181704730B55D
:1017F00004460D4629462046FFF7F0FF208940F0B9
:101800000700208130BD2DE9F04104460D46164603
:101810001F46602D06D13B46012231462046FFF788
:101820005AFE05E03B46012231462046FFF79DFE69
:1018300029462046FFF7D2FF208940F0070020818B
:10184000BDE8F08130B50C4600210189C9B24FF6E0
:10185000FF7505EA0325154325432943018130BD62
:101860002DE9F04105460E461746984600244346AA
:101870003A4631462846FFF7E5FF2C894FF6F870C7
:10188000044044F007044FF68F70044044F07004A5
:101890002C81BDE8F081F0B504460D4616461F4682
:1018A0003B46324629462046FFF7CCFF208940F4CC
:1018B00080402081F0BD0185828270470A46002168
:1018C00001884FF68F731940114301807047F0B5BE
:1018D0000C4615461E460021002200230189028B7A
:1018E000038C4FF6F877394021434FF6FC473A40D6
:1018F00040F201173A434FF6DD773B404FF6FF7752
:1019000007EA06172F433B43018102830384F0BD9E
:101910000A460021018B4FF68F7319401143018352
:1019200070470A460021018B48F6FF7319404FF6B5
:10193000FF7303EA02231943018370470A4600211B
:10194000818B4FF68F7319401143818370470A468C
:101950000021818B48F6FF7319404FF6FF7303EAAD
:10196000022319438183704721B1028842F080022B
:10197000028004E002884FF67F731A4002807047AD
:1019800021B1828842F00402828004E082884FF60E
:10199000FB731A408280704721B1828842F00802AE
:1019A000828004E082884FF6F7731A408280704785
:1019B00021B1828842F00102828004E082884FF6E1
:1019C000FE731A40828070470A460021018B4FF651
:1019D000F77319401143018370470A460021018BB8
:1019E0004FF2FF7319404FF6FF7303EA02231943C6
:1019F000018370470A460021818B4FF6F773194027
:101A00001143818370470A460021818B4FF2FF7397
:101A100019404FF6FF7303EA02231943818370478D
:101A20000A460021018B4FF6FB73194011430183D5
:101A300070470A460021018B4FF6FF3319404FF6DD
:101A4000FF7303EA02231943018370470A4600210A
:101A5000818B4FF6FB7319401143818370470A460F
:101A60000021818B4FF6FF3319404FF6FF7303EAD5
:101A700002231943818370470A460021018B4FF6E8
:101A80007F7319401143018370470A460021018B7F
:101A9000C1F30E014FF6FF7303EA022319430183DA
:101AA00070470A460021818B4FF67F73194011431E
:101AB000818370470A460021818BC1F30E014FF6E6
:101AC000FF7303EA02231943818370470A4600210A
:101AD000018C4FF6FD7319401143018470470A468B
:101AE0000021018C4FF6F7731940114301847047B0
:101AF0000A460021018C4FF6DF7319404FF6FF7341
:101B000003EA02131943018470470A460021018C3D
:101B10004FF67F7319404FF6FF7303EA0213194320
:101B2000018470470A460021018C4FF6FF5319408B
:101B30004FF6FF7303EA02231943018470470A46F4
:101B40000021018C4FF2FF7319404FF6FF7303EA37
:101B500002231943018470470A460021018C4DF687
:101B6000FF7319404FF6FF7303EA023319430184F0
:101B7000704730B5002301248C40A3B2048C9C43F1
:101B80000484048C02FA01F5ADB22C43048430BD08
:101B900030B5002304248C40A3B2048C9C430484FD
:101BA000048C02FA01F5ADB22C43048430BD70B54B
:101BB0000346002000241846183001258D40ACB2A1
:101BC0001D8CA5431D8409B1082909D100EB6100D2
:101BD000056825F0700505600568154305600EE091
:101BE0000D1FC5F34E052844056825F4E045056042
:101BF00005684FF6FF7606EA02263543056070BD9C
:101C000021B1028842F00202028004E002884FF60D
:101C1000FD731A400280704721B1028842F004022D
:101C2000028004E002884FF6FB731A40028070477E
:101C300021B1828842F08002828004E082884FF6DF
:101C40007F731A408280704702884FF6F7731A40FC
:101C5000028002880A430280704782884FF68F73A1
:101C60001A40828082880A438280704702894FF638
:101C7000F8731A40028102890A430281704702897F
:101C80004FF67F731A40028102890A43028170472E
:101C900081847047818570478186704701877047CE
:101CA00081877047A0F84010704702884FF6FF43C5
:101CB0001A40028002880A43028070470146888EDB
:101CC00070470146088F70470146888F704701466C
:101CD000B1F8400070470146888C70470146088D76
:101CE000704702460020138A0B400BB1012000E030
:101CF00000207047CA430282704730B50246002078
:101D000000230024158A05EA0103958905EA0104E8
:101D100013B10CB1012000E0002030BDCA430282A3
:101D20007047000010B50446FB48844209D10121E8
:101D30008803FFF79FF800214FF48040FFF79AF8DF
:101D400032E0F648844209D101214804FFF79FF8A8
:101D500000214FF40030FFF79AF825E0F048844264
:101D600009D101218804FFF792F800214FF4802067
:101D7000FFF78DF818E0EB48844209D10121C8042F
:101D8000FFF785F800214FF40020FFF780F80BE003
:101D9000E548844208D101210805FFF778F80021C1
:101DA0004FF48010FFF773F810BD2DE9F04786B0AF
:101DB00005460E460024A24600BFA1460027B08972
:101DC00000B100BF2F462C8A4CF6FF700440F0880B
:101DD00004432C82AC894EF6F3100440B08831895C
:101DE0000843718908430443AC81AC8A4FF6FF4035
:101DF0000440B0890443AC8201A8FEF7B4FFC64892
:101E0000874202D1DDF810A001E0DDF80CA0A8891E
:101E100000F4004040B10AEBCA0000EB0A10316840
:101E20004900B0FBF1F807E00AEBCA0000EB0A102A
:101E300031688900B0FBF1F86420B8FBF0F00401D0
:101E40002009642101FB1089A88900F4004040B1F9
:101E5000322000EBC900B0FBF1F000F007000443B2
:101E600008E0322000EB09106421B0FBF1F000F033
:101E70000F0004432C8106B0BDE8F0874FF41651E3
:101E8000016000218180C18001810C2141810021FC
:101E90008181704710B502460020108A4FF2FF037F
:101EA00018400B884C8823438C882343CC882343D9
:101EB0001843108210BD0021018041808180C180C3
:101EC000704721B1828942F40052828104E0828904
:101ED0004DF6FF731A4082817047F0B50346002427
:101EE00000260025002040F66A17B94200D100BF45
:101EF0001846C1F3421401F01F06012707FA06F540
:101F0000012C01D10C3004E0022C01D1103000E092
:101F100014301AB107682F43076002E00768AF4327
:101F20000760F0BD1AB1838A0B43838202E0838A83
:101F30008B4383827047028A4FF6F0731A40028205
:101F4000028A0A430282704782894FF2FF731A4065
:101F5000828182890A438281704721B1828942F05D
:101F60000202828104E082894FF6FD731A40828169
:101F70007047028A4FF6DF731A400282028A0A43D0
:101F80000282704721B1028A42F48042028204E058
:101F9000028A4BF6FF731A4002827047C1F30802AF
:101FA0008280704701468888C0F3080070478189A5
:101FB00041F0010181817047028BD2B20283028B12
:101FC00042EA012202837047028B02F47F420283BD
:101FD000028B0A430283704721B1828A42F02002B9
:101FE000828204E0828A4FF6DF731A408282704751
:101FF00021B1828A42F01002828204E0828A4FF686
:10200000EF731A408282704721B1828A42F008023F
:10201000828204E0828A4FF6F7731A408282704708
:1020200021B1828942F40042828103E08289C2F3B5
:102030000E028281704721B1828A42F4006282825C
:1020400004E0828A4FF2FF731A4082827047828ACC
:102050004FF6FB731A408282828A0A43828270475B
:1020600021B1828A42F00202828204E0828A4FF623
:10207000FD731A408282704702460020B1F5007F4E
:1020800000D100BF13880B400BB1012000E00020FD
:10209000704701F40072B2F5007F00D100BFCA435F
:1020A0000280704770B502460024002300250020FE
:1020B00040F66A16B14200D100BFC1F3421501F0EB
:1020C0001F03012606FA03F3012D02D1968933403E
:1020D00006E0022D02D1168A334001E0968A334091
:1020E0000C12012606FA04F41688344013B10CB120
:1020F000012000E0002070BD10B50022002340F652
:102100006A14A14200D100BF0A1201249440A3B274
:10211000DC43048010BD0000003801400044004052
:1021200000480040004C00400050004000F095FB8B
:1021300000F017F900BFFEE738B540F225514F48CF
:10214000FFF7B0FF00287DD04C48FFF72BFF4C492C
:102150000870084602784B4801780078401C494BCB
:10216000187049484254464800780A286AD14748BE
:10217000474B484A48A10090434800F091FB45482E
:102180000068012804D0022827D0032871D149E033
:102190003E48006800F0C9FF044622460B463C4812
:1021A000016840A001F0A6FB384800684549086076
:1021B00037480068886008468068434991FBF0F022
:1021C000401C40494860086800F0E4F900F088F9D4
:1021D0003C49486800F0CCFA4BE02C48006800F01D
:1021E000A4FF044622460B462948016837A001F0A7
:1021F00081FB264800683F490860254800688860E0
:1022000008468068304991FBF0F0401C394948602D
:10221000086800F00BFA00F081F93649486800F0D0
:10222000A7FA26E01948006800F07FFF044622461E
:102230000B461748016830A001F05CFB13480068AA
:10224000364900E019E008601148006888600846D7
:1022500080681D4991FBF0F0401C304948600868D7
:1022600000F05DFA00F078F92C49486800F080FA37
:1022700000BF00BF00200349087038BD003801408E
:10228000290000202800002040030020300000200A
:102290002C0000203400002025642C25642C2566A9
:1022A000000000005345542073696E655F66203D51
:1022B0002025642C73696E655F565050203D2025A3
:1022C000660D0A00A40300204495080053455420DD
:1022D000547269616E676C655F66203D2025642CD1
:1022E000547269616E676C655F565050203D2025C1
:1022F000660D0A00B00300205345542050756C73DE
:10230000655F66203D2025642C50756C73655F56B3
:102310005050203D2025660D0A000000BC0300201F
:10232000704700BFFEE700BFFEE700BFFEE700BF4B
:10233000FEE77047704770477047000008B54FF4DC
:10234000A060FEF703F825208DF8000001208DF82D
:1023500001008DF802008DF803006846FDF7FBFFD1
:1023600008BD00B585B001210420FEF769FD0121FB
:102370008803FEF765FD4FF40070ADF810001820DB
:102380008DF8130003208DF8120004A95248FEF7BF
:102390009BFA4FF48060ADF8100004208DF8130014
:1023A00004A94D48FEF790FA4FF4E1300090002068
:1023B000ADF80400ADF80600ADF80800ADF80C006B
:1023C0000C20ADF80A0069464448FFF7EEFCFFF721
:1023D000B5FF012240F225514048FFF77EFD012163
:1023E0003E48FFF76EFD05B000BD70B504460D46D2
:1023F00029462046FFF7D2FD00BF80212046FFF787
:102400003BFE0028F9D070BD2DE9F04107460D468E
:102410001646002405E0295D3846FFF7E6FF601CFC
:10242000C4B2B442F7DB00BF40213846FFF724FEB8
:102430000028F9D0BDE8F08170B506460C460025AD
:1024400000BF615D3046FFF7D0FF6D1C605D002866
:10245000F7D100BF40213046FFF70EFE0028F9D02B
:1024600070BD2DE9F04105460C46260AE7B231461B
:102470002846FFF793FD00BF80212846FFF7FCFDAB
:102480000028F9D039462846FFF788FD00BF802193
:102490002846FFF7F1FD0028F9D0BDE8F08170B5BE
:1024A00004460D46E1B20D48FFF778FD00BF8021DC
:1024B0000A48FFF7E1FD0028F9D0204670BD10B5AD
:1024C000044600BF20210548FFF7D6FD0028F9D0BB
:1024D0000248FFF767FD10BD0008014000380140C9
:1024E00000B58BB0E1480090E148019010200290C7
:1024F00080200390002004908020059040000690EA
:1025000080000790202008900002099000200A9087
:102510006946D848FEF7F0F80BB000BD00B58BB0A7
:10252000D2480090D448019010200290802003905F
:1025300000200490802005904000069080000790C5
:10254000202008900002099000200A906946C9489E
:10255000FEF7D2F80BB000BD00B58BB0C3480090B9
:10256000C648019010200290802003900020049023
:102570008020059040000690800007902020089061
:102580000002099000200A906946BA48FEF7B4F8A4
:102590000BB000BD2DE9F04F8FB083464FF0000A1D
:1025A0003EE0584600F0C1FD06460F46504600F09A
:1025B00071FD8046B24AB34B00F08BFC0022B24B57
:1025C000CDE9000100F0F7FCCDE9020102F03AF993
:1025D0000022AE4BCDE9040100F0D4FB00224FF005
:1025E0008043CDE9060100F0E6FC32463B46CDE9EA
:1025F000080100F06EFC0022A54BCDE90A0100F0B5
:1026000068FC4FF06632A34BCDE90C0100F0D3FC1F
:10261000044600F071FD964921F81A000AF1010AFA
:10262000BAF1800FBDDB0FB0BDE8F08F2DE9F14F9F
:102630008AB04FF0000A6CE0BAF13F0F2ADC504636
:1026400000F028FDCDE908010A9800F041FD1FFACD
:1026500080FB584600F02FFD06464FF066328D4B4A
:1026600000F0A9FC04460022894B00F032FC002255
:10267000854BCDE9040100F09EFCCDE90601DDE9C2
:10268000082300F026FC804600F036FD7A4921F848
:102690001A003CE0AAF1400000F0FCFC04460D46A4
:1026A0000A9800F042FD4FF066327A4BCDE9000106
:1026B00000F081FC80460022754B00F00AFC0022ED
:1026C000714BCDE9020100F076FC064622462B460E
:1026D00000F0FFFBCDE906010A9800F026FD044654
:1026E0004FF066326B4B00F066FC06460022684BEA
:1026F00000F0EFFBCDE90401DDE9062300F0E3FB88
:10270000CDE9080100F0F8FC5B4921F81A000AF154
:10271000010ABAF1800F8FDB0BB0BDE8F08F2DE915
:10272000F05F83464FF0000A1DE0BAF13F0F04DC72
:102730000020524921F81A0013E0584600F0F5FC39
:1027400080464FF06632534B00F035FC06460022BF
:102750004F4B00F0BEFB044600F0CEFC474921F889
:102760001A000AF1010ABAF1800FDEDBBDE8F09F22
:1027700010B5044600214848FEF7F6FF46498C850F
:1027800001214548FEF7F0FF10BD08B501210420E6
:10279000FEF756FB1020ADF8000000208DF8030076
:1027A00069463E48FEF790F808BD0EB5012110209D
:1027B000FEF753FB0F20ADF804000020ADF8000039
:1027C000ADF80600ADF8020069463348FEF770FC2C
:1027D00020213148FFF741FA01212F48FEF7C4FFBD
:1027E0000EBD00B58FB001210220FEF71CFB0121B8
:1027F0004807FEF732FB04200090002001900220E1
:10280000039069460020FDF71AFE18480490184806
:1028100005901020069080200790002008908020CE
:10282000099040000A9080000B9020200C9000023C
:102830000D9000200E9004A90E48FDF75DFF0121C8
:102840000C48FDF784FF01210020FDF715FE012152
:102850000020FDF722FE0FB000BD10B5FFF795FF79
:10286000FFF7A3FFFFF7BDFF10BD00000874004095
:1028700038000020300402403801002038020020D7
:102880006F1283C0CA210940000050400000F03F91
:102890000000B04066660A40001000400008014099
:1028A0000FB400B58DB010A909900B9000914FF0B6
:1028B000FF300A9000200C900548069005480790CC
:1028C0006A4609A80F9900F0CFFC0DB05DF814FB23
:1028D00085320008A33200082DE9FF5F1D464FF046
:1028E000FF3BD5E9014691465F464FF00008A969D4
:1028F0007F1C01988847296A824688470028F6D1BC
:10290000BAF1FF3F0CD024F4C064002E19DD60063C
:1029100014D5BAF12B0F09D0BAF12D0F0ED103E067
:10292000584604B0BDE8F09F44F48064A9697F1C58
:1029300001988847761E8246002E02DDBAF1300FDC
:1029400003D0B9F1000F26D032E0A969761E44F415
:1029500000747F1C019888478246002E05DDBAF17D
:10296000780F06D0BAF1580F03D0B9F1000F10D08C
:102970001EE0B9F1000F02D0B9F1100F18D1A9690A
:10298000761E24F400747F1C01988847824610202C
:1029900002E0082000E00A20814609E008FB09085F
:1029A000A969761E44F400747F1C0198884782460A
:1029B000002E05DD4946504600F042FC0028EDDAC5
:1029C000E96901988847A00502D46FF00100A8E7E3
:1029D000E00725D1600613D5600502D5C8F10000D7
:1029E00000E0404629680A1D2A600968220501D5D1
:1029F000087015E0220701D5088011E008600FE09B
:102A00002868011D29600068210502D580F8008032
:102A100006E0210702D5A0F8008001E0C0F80080A0
:102A200038467EE72DE9FF4F087883B09946FF28A6
:102A300005D0491C2D2804D00024002008E00020E7
:102A40000BE00124F9E700EB800003EB4000491C98
:102A50000B78FF2BF7D104B1404200230293147886
:102A600019461D462D2C01D02B2C04D1521C2D2C87
:102A700013D000240294AA461478FF2C0FD00A2504
:102A8000A3FB057801FB05814FF0000C03FB0C1143
:102A9000521CE3194AEB0101EEE70124EAE7814405
:102AA00053EA010002D019F5C87F06DA0398002125
:102AB000C0E9001107B0BDE8F08F0025AE4E2F46EB
:102AC000DFF8B882184600F05AFCCDE90001B9F1F0
:102AD000000002DAC9F1000400E004460023A74A1E
:102AE0001AEB030B42EB045A12E0E00707D02A4628
:102AF00033463846414600F0ECF9074688462A46F8
:102B000033461046194600F0E4F905460E466410B7
:102B1000002CEAD1DDE90001B9F1000F5A46534615
:102B200006DA00F048FA3A46434600F044FA05E077
:102B300000F0CFF93A46434600F0CBF9029A0AB1C9
:102B400081F00041039AC2E90001B3E72DE9FF4F8C
:102B50001F468DB0D7E901464FF0FF382E2045467D
:102B60004FF000090B90B9696D1C0E988847396ABF
:102B7000824688470028F6D1BAF1FF3F0AD024F4F4
:102B8000D064002E11DDBAF12B0F08D0BAF12D0F51
:102B90000BD102E0404611B08DE744F48064B9697E
:102BA0006D1C0E9888478246761E6946600501D5E1
:102BB0002D2000E02B208DF8000001F1010B0DF11C
:102BC000200809E0B9696D1C0E98884782460F9865
:102BD00044F40074761E0560002E02DDBAF1300F59
:102BE000F0D00B998A453ED144F0800406E00F995D
:102BF000681CA9F1010944F400740860B9696D1CEE
:102C0000761E0E98884782463028F0D02BE00B992C
:102C10008A4505D1200603D444F08004761E18E0CE
:102C2000504601F083FA08B30DF11301761E44F407
:102C300000748B4508D2AAF130000BF8010B200676
:102C400007D5A9F1010003E0200602D409F1010033
:102C50008146A00502D50F99681C0860B9696D1CF2
:102C60000E9888478246002ED1DC53E0002E51DDBD
:102C7000BAF1650F02D0BAF1450F4BD1A00549D585
:102C8000B9696D1C24F44074761E0E9888478246FC
:102C9000002E0CDD2B2804D0BAF12D0F07D144F4FF
:102CA0008074B9696D1C0E9888478246761EE005CF
:102CB00001D52D2100E02B2108F8011BCDF82C8037
:102CC00021E00DF12901761E44F4007488450CD2F0
:102CD000AAF1300010F0FF0088F8000002D10B9933
:102CE000884509D908F1010806E0E00501D5244826
:102CF00001E042F20F708146B9696D1C0E98884759
:102D000082460F980560002E04DD504601F00EFA51
:102D10000028D6D1F9690E988847FF208BF800006B
:102D200088F800000020069007904B466A4608A9E4
:102D300006A8FFF777FEA00502D46FF001002AE78E
:102D400014F0240F0AD0E00714D1DDE90612386828
:102D5000031D3B600068C0E900120BE0DDE90601DD
:102D600000F04AFB0146E00704D13868021D3A60D2
:102D70000068016028460EE7000014400000F03FA4
:102D8000F1D8FFFF2DE9FE4F804681EA0300C00F16
:102D90000C46009021F0004123F00045B8EB020002
:102DA000A94105D24046214690461C460B460246A4
:102DB00023F00040104347D0270DC7F30A00C3F3A8
:102DC0000A510290401A019040286BDAC3F31300B5
:102DD00040F4801B0098924620B10023D2EB030AF6
:102DE00063EB0B0B01985946C0F14002504600F0CE
:102DF000F6F906460D4650465946019A00F00EFA7D
:102E000010EB08006141002487EA115284EAE7735D
:102E10001A4340D0009A62B3019A012A4FEA07523E
:102E200015DC001B61EB02014FF0004202EA075281
:102E3000CDE90042001C41F5801132462B4600F0DE
:102E400050FA03B0BDE8F08F40462146F9E7001B79
:102E500061EB0201001C41F5801300185B41201852
:102E6000A2F5001747EB030140EAD570B6196D4192
:102E700011E06D084FEA360645EAC0754FEA075281
:102E8000001B61EB0201001C41F5801149084FEA6B
:102E900030000019514132462B4603B0BDE8F04FD7
:102EA00000F010BA0098012240000023D0EB02028B
:102EB00063EBE073009821464FEAE074B8EB000042
:102EC00061EB0401E9E783F000435BE781F0004137
:102ED00058E72DE9FE4F81EA030404F0004421F095
:102EE000004100944FF0000B23F0004350EA01042E
:102EF0005ED052EA03045BD0C3F30A54C1F30A550F
:102F00002C44A4F2F3340194A0FB0254C1F3130146
:102F100041F48011C3F3130343F4801301FB024413
:102F200000FB034E840A970A44EA815447EA835718
:102F3000A4FB076802958D0A05FB07854FEA932CD1
:102F400004FB0C542705029D4FEA065847EA163742
:102F5000B5EB08056EEB070C870E920E47EA81175A
:102F600042EA8312A7FB0201B6EB0B0164EB0004FB
:102F70002B0D43EA0C335E1844EB1C50DA465146E5
:102F8000E7FB0201C5F313044FEA0B3343EA145382
:102F90004FEA0432019C43EA0603A4F10C040294B4
:102FA000009CCDE900B400F09CF903B0BDE8F08FBF
:102FB00000200146F9E72DE9F04D81EA030404F011
:102FC000004B21F0004514464FF0000A23F0004169
:102FD00050EA050220D054EA01021DD0C5F30A5779
:102FE0000246C5F31303C1F31300C1F30A5640F4BC
:102FF000801543F48013A7EB0608101BD64608F291
:10300000FD3873EB050002D308F1010801E09218C6
:103010005B41B8F1000F03DA00200146BDE8F08DF6
:1030200000204FF48011064684460EE0171B73EB18
:10303000050705D3121B63EB050306434CEA010C9D
:1030400049084FEA300092185B4150EA0107EDD180
:1030500052EA030012D082EA040083EA0501084321
:1030600005D0101BAB4106D20122002306E000224E
:103070004FF0004302E06FF0010253101AEB06001C
:103080004CEB085110EB0A0041EB0B01BDE8F04D91
:1030900000F018B90EB5C10F80EAE0700844CA0705
:1030A000002140F233438DE80E000A460B4600F043
:1030B00018F903B000BD0EB540F233410291002172
:1030C000CDE900110A460B4600F00BF903B000BD34
:1030D00020F00040C10DC0F3160040F400007F292D
:1030E00001DA00207047962903DCC1F19601C8403F
:1030F0007047963988407047C1F30A5210B5C1F342
:10310000130140F2FF3341F480119A4201DA0020AA
:1031100010BD40F233439A42A2F2334203DC5242E2
:1031200000F06CF810BD904010BD00F0004230F08F
:1031300000400AD0C10D01F56071C0F3160042EAEB
:103140000151C208400711437047002001467047F3
:1031500030B50B46014600202022012409E021FA67
:1031600002F59D4205D303FA02F5491B04FA02F564
:103170002844151EA2F10102F1DC30BD2DE9F05FFB
:103180000546002092469B468846064681464024D6
:103190001BE0284641464746224600F02FF853469A
:1031A0005A46C01A914110D311461846224600F0E3
:1031B00016F82D1A67EB01084F4622460120002120
:1031C00000F00DF817EB00094E41201EA4F1010498
:1031D000DFDC484631462A464346BDE8F09F202AB8
:1031E00004DB203A00FA02F1002070479140C2F15E
:1031F000200320FA03F3194390407047202A04DB90
:10320000203A21FA02F00021704721FA02F3D0405F
:10321000C2F120029140084319467047202A06DB7C
:10322000CB17203A41FA02F043EAE07306E041FA94
:1032300002F3D040C2F12002914008431946704782
:103240003A2800D2303820F02002412A01D3A2F1DE
:103250003700884201D34FF0FF30704702681144B5
:103260001378016018467047D160044951610449E0
:10327000116200211161114600F0F2B85D320008C0
:1032800055340008426842B1016811F8013B23B18E
:10329000521EC0E90012184670470121C160881E05
:1032A000704742685AB1C368016843B983688B426A
:1032B00005D0491E521CC0E90012002070474FF093
:1032C000FF30704710B5141E73F1000408DA401C7B
:1032D00041F1000192185B411A4301D120F0010035
:1032E00010BD2DE9F04D92469B4611B1B1FA81F225
:1032F00002E0B0FA80F220329046FFF770FF0446F9
:103300000F4640EA0A0041EA0B0153465A46084379
:1033100013D0114653EA010019D0C8F140025046BB
:10332000FFF76CFF05460E46504659464246FFF7EA
:1033300056FF084305D0012004E020463946BDE889
:10334000F08D0020054346EAE0762C4337430A9887
:103350006305E40AA0EB08000022FD0A44EA475492
:103360000A3002D500200146E9E70105101969413C
:10337000DDE9084500196941BDE8F04DA2E70EB549
:1033800040F2334202920022CDE900221346FFF7B9
:10339000A8FF03B000BDC1F30A52C1F3130140F20C
:1033A000FF3341F480119A4202DA0020014670474F
:1033B00040F233439A42A2F2334202DC5242FFF718
:1033C0001DBFFFF70CBF000030B5041E71F10004F3
:1033D00004DB4FF00044404264EB0101141E73F122
:1033E000000405DB1C464FF00043524263EB04032C
:1033F000994208BF904230BD01F0004330B421F043
:10340000004150EA010206D00A0DA2F56072C1F334
:103410001301002A02DC30BC00207047440F44EA4C
:10342000C104C100E01830BC00EBC25000F0B0B9DC
:10343000064C074D06E0E06840F0010394E8070001
:1034400098471034AC42F6D3FCF776FE484A0008A1
:10345000684A0008C0B24FF4F05100F007BA00000B
:103460002DE9F34F8BB04FF0000801F10C000C4632
:103470004FF0010B46460DF1080A019062690121E7
:1034800001989047051E2DD0252D2CD0216A884704
:10349000C0B16269012101989047216A88470028DC
:1034A000F7D1411E62690198904700E0761CA1693E
:1034B0000B988847216A88470028F7D1E1690B9863
:1034C0008847DBE7A1690B9888470746A84201D1E6
:1034D000761CD3E7E1690B9888477F1C02D1B8F1CD
:1034E000000F6FD047E1002762693D4639460198D9
:1034F00090472A2804D1626901210198904701254B
:10350000DFF888926269012101989047A0F13001AB
:103510000A290AD24F45E5DC07EB870100EB41079A
:10352000303FDFD445F01005ECE7E90601D46FF039
:1035300000476C280AD04C2814D0682815D06A2877
:103540000DD074281CD07A281AD01DE062690121A0
:10355000019890476C2802D045F0040514E045F02E
:1035600002050DE045F020050AE06269012101989D
:103570009047682802D045F0080505E045F400654D
:103580006269012101989047C4E9015765283DD03F
:1035900019DC58287AD00CDC452837D004DC2528E3
:1035A00026D0412831D131E046282FD047282CD1D0
:1035B0002CE05B2877D0612828D063287CD0642851
:1035C00023D15AE0D1E06F2848D008DC66281DD00E
:1035D00067281BD0692821D06E2816D127E07028D3
:1035E00045D0732868D0752847D078280DD14DE094
:1035F000A1690B988847054625283FF469AFE16922
:103600000B9888476D1C3FF46AAFB4E023466A46C6
:103610006FF001000B99FFF799FA9FE045F0400029
:103620006060A80723464FF0000236D43EE0E8076A
:103630007FF447AF2068011D21600068290501D58E
:1036400006701BE7290701D5068017E7A90703D5F0
:10365000F117C0E9006111E706600FE745F040008F
:103660006060A80723464FF0080216D41EE040F61B
:103670000E0125EA0100606016E045F04000606040
:10368000A80723464FF00A0207D40FE045F0400098
:103690006060A80708D5234610226FF001000B993F
:1036A000AFF300805AE007E0234610226FF00100DC
:1036B0000B99FFF711F951E04FF000094F464B46C7
:1036C000632802D05B2807D041E02079C00601D4EE
:1036D0000120A06001273AE062690121019890472A
:1036E0005E2805D14FF0010962694946019890476B
:1036F000216939B900210A46534643F82120491C63
:103700000829FADBB0B3216969B9C11700EBD162AE
:1037100053110AEB830122F01F02821A01200B6869
:10372000904003430B6062690121019890475D2836
:10373000E8D1B9F1000F09D00020514651F82020FE
:10374000D24341F82020401C0828F7DB02AB224678
:1037500000976FF001000B99AFF3008000280CDA9E
:10376000401C08D1BBF1000F05D04FF0FF300DB069
:10377000BDE8F08FFFE74046F9E7E90701D108F11E
:10378000010806444FF0000B78E60000CCCCCC0CCE
:103790000029A8BF7047401C490008BF20F0010065
:1037A000704710B4B0FA80FC00FA0CF050EA010443
:1037B00004BF10BC704749B1CCF1200421FA04F4D5
:1037C00011FA0CF118BF012121430843A3EB0C01AE
:1037D000CB1D4FEA00614FEA102042BF002010BC11
:1037E000704700EBC35010440029A4BF10BC7047C1
:1037F000401C490008BF20F0010010BC704770B5A4
:1038000021F0004303430CD0C1F30A550024D5EB4B
:10381000040564EB0403D617AD1AB34102DB0020A4
:10382000014670BD201841EB025170BD70B5C1F367
:103830000A5201F000450024C1F3130140F2FF33A6
:1038400041F480119A4201DA002070BD40F2334306
:103850009A42A2F2334203DC5242FFF7CFFC00E06F
:1038600090402C43F1D0404270BD00007F2801D928
:10387000002208E0064A02EB5002C007127800D18D
:10388000120902F00F02012090400840704700002A
:10389000084A000870B58D1810F8014B14F00302A7
:1038A00001D110F8012B231106D110F8013B03E0E0
:1038B00010F8016B01F8016B521EF9D1ABB110F891
:1038C000012B04F00C048A1A0C2C03D0A2EB8412F6
:1038D0009B1C08E010F8014BA2EB0422F8E712F859
:1038E000014B01F8014B5B1EF9D5A942D4D300204E
:1038F00070BD00000FB4054B10B503A9044A02982F
:1039000000F01CFC10BC5DF814FB00009F240008B4
:1039100038030020490050EAC12018BF04204A0D96
:1039200018BF40F0010040F2FF72B2EB515F08BFD8
:1039300040F00200012808BF052070472DE9F74F2D
:10394000144694B00021C4E902111599079121F0A1
:103950000045C9498D4206DC1599C4E9000117B03C
:103960000020BDE8F08FC549DFF814A3A9423CDD73
:103970000799C44E0029C44FC44A1599534619DD0E
:10398000FFF7A1FA554506D0C14AC24BFFF79BFA93
:10399000C4E900010AE04FF0D352BE4BFFF793FA9F
:1039A00032463B46FFF78FFAC4E9000117B0012009
:1039B000BDE8F08FFFF7E6F9554506D0B44AB54BA0
:1039C000FFF7E0F9C4E900010AE04FF0D352B14B30
:1039D000FFF7D8F932463B46FFF7D4F9C4E90001B6
:1039E00017B04FF0FF30BDE8F08FAB49A9421599F1
:1039F00078DB21F0004183468846A84AA84BFFF7B0
:103A000068FA0022A74BFFF7BDF9FFF70FFF0990F7
:103A1000FFF740FB06460F469C4A5346FFF759FA0C
:103A200043465A46FFF752FA80468A46984A994BCF
:103A300030463946FFF74DFA2A0D01250B924246D2
:103A40005346FFF743FA032DC4E9000139D00B9820
:103A5000C1F30A51401A05EB45111139814230DAA0
:103A60009148C346784400EB0510CDF80CA00C90AB
:103A7000D0E9002330463946FFF72BFA02460B46C1
:103A80000491069058460399FFF71DFA80468A462E
:103A900002460B4658460399FFF715FA049B069A0F
:103AA000FFF711FA83460C9803913946D0E90223B7
:103AB0003046FFF70EFA5A46039BFFF704FA6D1CD7
:103AC000BDE707980028A2BF099817B0BDE8F08F9E
:103AD000616881F000416160099817B04042BDE81B
:103AE000F08FFFE784461598C1F31301C0F30A5025
:103AF000A0F2F5304FEA601800F01F06C6F1200072
:103B0000139000200690079041F4801E05206D461A
:103B100076B1664A08EB00017A4452F8213002EB94
:103B20008101B3404A68139922FA01F1194305E073
:103B30005F4908EB0002794451F82210A1FB0E27DF
:103B4000A1FB0C131A449A4234BF0123002303EB58
:103B5000070A05EB8003D3E901B70F448F4234BF56
:103B60000121002193448B4411B1934502D903E014
:103B7000934501D2012100E00021C3E901B751447E
:103B800045F82010011EA0F10100C1DC0298059F3C
:103B900000F10050800F12900298DDE9035680007A
:103BA000FFF778FA834628460D91FFF784FA6FF005
:103BB0001D02FFF724FECDE90E013046FFF77BFA28
:103BC0006FF03D02FFF71BFE80468A463846FFF73E
:103BD00072FA6FF05D02FFF712FE07464246534647
:103BE0001191FFF7CFF8DDE90E23FFF7CBF85A4626
:103BF0000D9BFFF7C7F800250E465A4628460D9B39
:103C0000FFF761F9DDE90E23FFF75DF94246534600
:103C1000FFF759F93A46119BFFF758F9DFF898A0DA
:103C2000244A5346FFF755F907468846234A244B52
:103C300031462846FFF74DF93A464346FFF7A2F8CA
:103C4000074688464FF0A842534631462846FFF7BC
:103C500040F93A464346FFF795F8159A12F0004F9F
:103C600004D0129A81F0004152421292C4E900013C
:103C7000129817B0BDE8F08FFB21E93F7CD90240D4
:103C8000FB21F93F7370032E8A19A33B00004054B7
:103C90003163621A61B4D03DFB21394183C8C96DDB
:103CA000305FE43F0000E03FB00E00002C0E00004B
:103CB0000E0E0000182D4454FB21F93D3326A611A9
:103CC000460B113C2DE9FF4D21F0004807460C46FC
:103CD000B8F1795F08DAFFF7A9FD002801BF0020DD
:103CE000324904B0BDE8F08D3A46234610461946E5
:103CF000FFF7EFF8054602462D480E460B46062113
:103D0000784400F05DF82A463346FFF7E2F8DDE933
:103D1000022382468B4638462146FFF7DAF80446EE
:103D20000F4652465B4628463146FFF7D2F82246F8
:103D30003B46FFF7C8F807468A464FF0FF32284651
:103D40003146FFF75CFD1B4A90450ADA3A46534676
:103D5000FFF7B9F804B00022BDE8F04D134BFFF7B0
:103D6000B5B8154A4245A8BFA8F500154FF00004A4
:103D7000B8BF124D22462B46FFF7A5F806468846E7
:103D800022462B4600200949FFF79DF804460D46C0
:103D90003A46534630464146FFF795F804B022466E
:103DA0002B46BDE8F04DFFF791B800000000F03F52
:103DB000E40B00003333D33F0000E93F0000D23F63
:103DC0002DE9F0414F1E00EBC7010446D1E9000187
:103DD00015461E4637F006020DD02A463346FFF739
:103DE00078F87F1E04EBC703D3E90023FEF7CAFF70
:103DF00037F00602F1D1022F25D0042F13D0062F61
:103E000018BFBDE8F0812A463346FFF762F8D4E9CF
:103E10000A23FEF7B7FF2A463346FFF75AF8D4E9DC
:103E20000823FEF7AFFF2A463346FFF752F8D4E9DE
:103E30000623FEF7A7FF2A463346FFF74AF8D4E9E0
:103E40000423FEF79FFF2A463346FFF742F8D4E9E2
:103E50000223FEF797FF2A463346FFF73AF8D4E9E4
:103E60000023BDE8F041FEF78DBF00002DE9FF4DB6
:103E7000054621F0004084B00C46B0F1795F0BDAC2
:103E80002846FFF747FD042808BF00F06FF82846D2
:103E900008B02146BDE8F08D2A460B461046FFF7D4
:103EA00018F806460F462A462346FFF712F88046C2
:103EB00026488A4632463B4605217844FFF780FF74
:103EC00083461098029160B3214A224B40465146E6
:103ED000FEF7FFFFCDE900015A4640465146029BDE
:103EE000FEF7F7FF82468846DDE906014FF0FF3214
:103EF000FFF785FC52464346FEF7E5FF32463B4658
:103F0000FEF7E7FFDDE90623FEF7DDFFDDE900232D
:103F1000FEF7D9FF08B02A462346BDE8F04DFEF76C
:103F2000D5BF0B465A4630463946FEF7D2FF084AFF
:103F3000084BFEF727FF42465346FEF7CAFF08B07C
:103F40002A462346BDE8F04DFEF71CBF220B0000B9
:103F5000495555555555C5BF0122FFF750BC0022A4
:103F6000134610461146FFF726B80000024A00200B
:103F70001107FFF744BC000001FDFFFF02E008C885
:103F8000121F08C1002AFAD170477047002001E0D3
:103F900001C1121F002AFBD17047000001490860CF
:103FA000704700003C0300202DE9FF5F82B0002134
:103FB000DDE90430020DDDF840B0034318D044F6CB
:103FC0001050A2F2FF3242431514119801281FD05D
:103FD000A5EB0B00401C5FEA000A4FF000064E4FB5
:103FE000DFF83891B046504615D5CAF1000413E009
:103FF000119801244AA3012801D16FEA0B0102980C
:10400000119AC0E90031C0E9024206B0BDE8F09F54
:10401000CBF10000DFE704460021404A491842EB9B
:104020000450CDE9001012E0E00707D032463B46CD
:1040300040464946FEF74DFF8046894632463B469C
:1040400010461946FEF745FF06460F466410002C41
:10405000EAD1DDE90401DDE90023BAF1000F06DA57
:10406000FEF737FF42464B46FEF733FF05E0FEF70B
:10407000A2FF42464B46FEF79EFF04460E46002234
:10408000284BFFF7A1F903D84FF0FF30014607E0B6
:104090000022254B20463146FEF774FEFFF77BF9E0
:1040A000102409E0002C0ADB0A220023FFF766F83F
:1040B000039B30321A55641E50EA0102F2D1641C8F
:1040C000039AC4F111031444119A012A03D0012266
:1040D00008430DD10AE0084304D000204FF0110B33
:1040E000119072E7A3EB0B056D1E0DE05B4504DD3F
:1040F0004FF0000205F1010504E003DA4FF0000281
:10410000A5F10105002AECD002981199C0E902310D
:10411000C0E9004579E70000000014400000F03FCE
:10412000300000000000F0430000E03F30380A2873
:1041300001D2012070470020704700002DE9FF4F99
:1041400095B09A46884606460025EEE1252877D1A7
:1041500000242746F94A0121039400E0044316F89D
:10416000013F203B01FA03F01042F7D130782A28B2
:1041700011D06FF02F033078A0F13002092A16D841
:10418000039A44F0020402EB820203EB4202104461
:10419000761C0390EFE758F8042B0392002A03DA09
:1041A000504244F40054039044F00204761C3078EA
:1041B0002E2816D116F8010F44F004042A280DD039
:1041C0006FF02F023078A0F13003092B09D807EBEC
:1041D000870302EB4303C718761CF3E758F8047B08
:1041E000761C30786C280FD006DC4C2817D0682855
:1041F0000DD06A2814D104E0742810D07A280FD189
:104200000DE044F400140AE044F4801401E044F4A6
:1042100040147278824202D104F58014761C761C18
:10422000307866280BD013DC582877D009DC0028BA
:1042300075D04528F6D04628F4D047281AD193E106
:1042400018E0632835D0642879D0652812D18BE135
:10425000702873D008DC6728F1D069286FD06E28E9
:104260000DD06F2806D1ACE073282CD0752874D0FF
:10427000782853D05246179990476D1C54E1C4F3E7
:104280000250022809D003280DD0D8F800100428C5
:104290000DD00D6008F1040846E1D8F80010EA17C7
:1042A000C1E90052F6E7D8F800100D80F2E70D7072
:1042B000F0E718F8041B8DF8001000208DF80100BD
:1042C000EB46012003E058F804BB4FF0FF306107D4
:1042D0004FF0000102D40DE009F101018946B94215
:1042E0000FDA8145F8DB1BF809100029F4D108E04A
:1042F00009F1010189468142FADB1BF80910002906
:10430000F6D103985346A0EB090721463846179A81
:1043100000F080FA284400EB090507E044E008E1DA
:104320000DE01BF8010B524617999047B9F10109AE
:10433000F7D2534621463846179AF2E039E00A216F
:10434000C4F302524FF0000B0091022A06D058F835
:10435000040BC117032A09D00AE023E008F1070083
:1043600020F00702F2E80201904605E000B2C11712
:10437000042A01D140B2C117002906DA0A460021F9
:10438000404261EB02012D2202E0220504D52B22DE
:104390008DF80420012203E0E20701D02022F7E794
:1043A000914657E00A2100E010214FF0000B0091E8
:1043B0000BE010214FF0000B44F00404082700919B
:1043C00003E008204FF0000B0090C4F30252022AD1
:1043D00005D058F8040B0021032A08D008E008F1A2
:1043E000070020F00702F2E80201904603E080B2E5
:1043F000042A00D1C0B24FF0000922072AD5327832
:10440000702A07D0DDF800C08CF0100C5CEA0B0CB1
:1044100005D00EE040228DF80420012208E050EA89
:10442000010306D030238DF804308DF805200222D8
:104430009146009B83F0080353EA0B030AD150EA2C
:10444000010201D1620705D530228DF804204FF01A
:1044500001097F1E3278582A04D039A20C920CAA86
:1044600002920BE03BA2F9E75B46009AFEF786FE5C
:104470000C9B9B5C029A521E0292137050EA01023E
:10448000F2D1029804A9081A00F1200B600702D5A6
:1044900024F4803400E001275F4502DDA7EB0B0028
:1044A00000E0002000EB0B01009003984944401A03
:1044B0000390E00306D453462146179A039800F070
:1044C000A9F90544002706E001A85246C05D1799E6
:1044D00090476D1C7F1C4F45F6DBE0030CD553461F
:1044E0002146179A039800F095F9054404E030201E
:1044F0005246179990476D1C0099481E009000295C
:10450000F5DC08E00298029952460078491C0291B5
:10451000179990476D1CBBF10001ABF1010BF1DC69
:104520005BE100F065F90544761C307800287FF4E3
:104530000DAE19B02846BDE8F08F00000928010033
:104540003031323334353637383961626364656609
:1045500000000000303132333435363738394142CB
:104560004344454600000000600700D4062708F1D8
:10457000070020F00700F0E80223804603F0004C1B
:104580005FEA0C0001D097A009E0200501D596A0B4
:1045900005E0E00701D095A001E0AFF24C001390D8
:1045A000307823F0004365280CD006DC452809D07C
:1045B00046281DD047287FD13BE0662818D06728C1
:1045C0007AD136E00021112F01DB112000E0781CA8
:1045D000CDE9000104A90CA8FFF7E6FCDDE90D0117
:1045E0000C9A4FF0000B07F10109109200914EE078
:1045F0004FF000400097CDE9011004A90CA8FFF787
:10460000D3FCDDE90D020C9B0F994FF0000B914696
:104610001093009211B9791C00EB0109B7EB090066
:1046200003D4C0F1FF3B07F10109A9EB070001909A
:1046300042E0012F00DA01270021112F01DD1120B6
:1046400000E03846CDE9000104A90CA8FFF7ACFC56
:10465000DDE90D010C9A00914FF0000BB946109264
:1046600021070FD4009A4A4503DA914601E0A9F1E7
:104670000109B9F1010F05DD109AA9F10101515CA1
:104680003029F4D0B84202DA10F1040F03DA012124
:10469000CDE9011010E0002803DC8344A9EB000100
:1046A00002E0411C494500DD8946A0EB0B00401C9F
:1046B00001904FF000400290200705D40198484532
:1046C00002DB4FF0FF30019000208DF84B00029884
:1046D0000DF14B07B0F1004F25D002200C902B209C
:1046E0000D90029800280CDA404202902D200D9087
:1046F00007E00A210298FEF72BFD3031029007F8FF
:10470000011D0C99481E0C900029F2DC029800282B
:10471000EFD1791E0D980870307800F0200040F03D
:10472000450007F8020D11A8C01BC01D0290139888
:10473000007800B1012000EB0901019801EBE07164
:10474000029801440398401A401E0390E00306D4E7
:1047500053462146179A039800F05CF805441398D5
:10476000007818B15246179990476D1CE00323D585
:1047700053462146179A039800F04CF805441BE075
:10478000BBF1000F07DB0098584504DD109817991E
:1047900010F80B0001E0179930205246904701981D
:1047A0000BF1010B401E05F10105019004D12E20F3
:1047B0005246179990476D1CB9F10001A9F1010902
:1047C000DEDC05E017F8010B5246179990476D1C87
:1047D0000299481E02900029F4DC53462146179A9C
:1047E00003989EE62D0000002B0000002000000032
:1047F0002DE9F041044600251E461746880404D4DE
:1048000005E039462020B0476D1C641EF9D52846C6
:10481000BDE8F0812DE9F041044600251E46904692
:10482000C80301D5302700E02027880404D505E01F
:1048300041463846B0476D1C641EF9D52846BDE890
:10484000F081000000B5254B21F0004287B09A426C
:1048500003DC0022134600922BE0214B9A4208D140
:1048600040B94FF00100FFF799FBFFF778FB07B065
:1048700000BD03DBFFF770FB07B000BD02AAFFF726
:104880005DF810F003014FF001000DD0012914D0A4
:1048900002291AD00DF1080C9CE80F00FFF712FA5C
:1048A00007B081F0004100BD0DF1080C00909CE8BC
:1048B0000F00FFF7DBFA07B000BD0DF1080C9CE814
:1048C0000F00FFF7FFF907B000BD0DF1080C0090D5
:1048D0009CE80F00FFF7CAFAE2E70000FB21E93F7E
:1048E0000000F07F000000004C5555555555A53F80
:1048F0007751C1166CC156BF9015CB19A001FA3E75
:10490000AD529C804F7E92BEC4B1B4BD9EEE213E9E
:10491000D43888BEE9FAA8BD00004054FB21F93F15
:104920003163621A61B4D03D0000601A61B4D03DB9
:104930007370032E8A19A33B0000002E8A19A33B33
:10494000C14920259A837B39000000000000000047
:104950006E83F9A22915444ED15727FCC0DD34F5EA
:10496000999562DB4190433CAB6351FE61C5BBDE70
:104970003A6E24B7E0D24D42EA2E49061C92D10984
:104980001CEB1DFE3EA729B1F53582E88444BB2E01
:1049900026709CE9417E5FB439D69139F43953834E
:1049A0008B5F849C3B28F9BDFF97F81F0F9805DEAD
:1049B0008B112FEF1F6D0A5ACF7E366DB709CB27AB
:1049C000663F464F2DEA5F9EC7BA27757BF1E5EB40
:1049D000F739073DEA92528AB15FFB6B085D8D1F84
:1049E000A6F810111111813FD561C119A0012ABF8C
:1049F0007DFEB157E31DC73EEB9C2B8AE6E55ABE10
:104A00007CD5CF5A3AD9E53DDDDDDDDDDCBBBBDD54
:104A1000DDDDDDDDDDDDDDDD98888888888888885E
:104A2000777777777788888885555556666666667E
:104A3000666666666668888883333332222222225D
:104A4000222222222228888D684A000800000020A5
:104A50004003000094380008884B00084003002001
:104A6000880400008C3F0008500600A24A040001A0
:104A7000600901020304060708090C6110E0060240
:104A800004060800011041086408C8082C098F09B1
:104A9000F109520AB10A0F0B6B0BC50B1C0C710C00
:104AA000C30C130D5F0DA80DED0D2F0E6C0EA60E91
:104AB000DC0E0E0F3B0F640F880FA70FC20FD80F2D
:104AC000E90FF60FFD0FFF0412F60C12D81412A70F
:104AD0001C12642410040E0FDC3010066C0E2F0E16
:104AE000ED4010065F0D130DC35010041C0CC55C87
:104AF00010080F0BB10A520AF17010042C09C87C7F
:104B0000104200089C073807D40671060F06AE0550
:104B10004F05F10495043B04E4038F033D03ED02CC
:104B2000A10258021302D10194015A012401F2009A
:104B3000C5009C00780059003E00280017000A00BC
:104B400003000104120A0C12281412591C129C248E
:104B50001004F200243010069401D1011340100615
:104B6000A102ED023D501004E4033B5C1008F10487
:104B70004F05AE050F700407FFD40638079C0700E9
:084B800005FE005101000000D8
:0400000508000131BD
:00000001FF
